{
  "_format": "hh-sol-artifact-1",
  "contractName": "RainInsurance",
  "sourceName": "contracts/RainInsurance.sol",
  "abi": [
    {
      "inputs": [
        {
          "internalType": "address",
          "name": "token",
          "type": "address"
        }
      ],
      "stateMutability": "nonpayable",
      "type": "constructor"
    },
    {
      "anonymous": false,
      "inputs": [
        {
          "indexed": false,
          "internalType": "uint256",
          "name": "policyId",
          "type": "uint256"
        },
        {
          "indexed": false,
          "internalType": "address",
          "name": "policyHolder",
          "type": "address"
        },
        {
          "indexed": false,
          "internalType": "uint256",
          "name": "insuredAmount",
          "type": "uint256"
        }
      ],
      "name": "ClaimCreated",
      "type": "event"
    },
    {
      "anonymous": false,
      "inputs": [
        {
          "indexed": true,
          "internalType": "uint256",
          "name": "policyId",
          "type": "uint256"
        },
        {
          "indexed": true,
          "internalType": "address",
          "name": "policyHolder",
          "type": "address"
        },
        {
          "indexed": false,
          "internalType": "uint256",
          "name": "insuredAmount",
          "type": "uint256"
        },
        {
          "indexed": false,
          "internalType": "string",
          "name": "reason",
          "type": "string"
        }
      ],
      "name": "ClaimProcessed",
      "type": "event"
    },
    {
      "anonymous": false,
      "inputs": [
        {
          "indexed": false,
          "internalType": "uint256",
          "name": "policyId",
          "type": "uint256"
        },
        {
          "indexed": false,
          "internalType": "address",
          "name": "policyHolder",
          "type": "address"
        },
        {
          "indexed": false,
          "internalType": "uint256",
          "name": "premiumAmount",
          "type": "uint256"
        },
        {
          "indexed": false,
          "internalType": "uint256",
          "name": "insuredAmount",
          "type": "uint256"
        }
      ],
      "name": "PolicyCreated",
      "type": "event"
    },
    {
      "inputs": [
        {
          "components": [
            {
              "internalType": "uint256",
              "name": "startDate",
              "type": "uint256"
            },
            {
              "internalType": "uint256",
              "name": "endDate",
              "type": "uint256"
            },
            {
              "internalType": "string",
              "name": "lat",
              "type": "string"
            },
            {
              "internalType": "string",
              "name": "long",
              "type": "string"
            },
            {
              "internalType": "uint256",
              "name": "precipitation",
              "type": "uint256"
            },
            {
              "internalType": "uint256",
              "name": "insuredAmount",
              "type": "uint256"
            },
            {
              "internalType": "uint256",
              "name": "premiumAmount",
              "type": "uint256"
            }
          ],
          "internalType": "struct RainInsurance.Policy",
          "name": "policy",
          "type": "tuple"
        }
      ],
      "name": "applyForPolicy",
      "outputs": [],
      "stateMutability": "payable",
      "type": "function"
    },
    {
      "inputs": [
        {
          "internalType": "uint256",
          "name": "policyId",
          "type": "uint256"
        }
      ],
      "name": "aproveClaim",
      "outputs": [],
      "stateMutability": "nonpayable",
      "type": "function"
    },
    {
      "inputs": [
        {
          "internalType": "address",
          "name": "",
          "type": "address"
        }
      ],
      "name": "claims",
      "outputs": [
        {
          "internalType": "uint256",
          "name": "",
          "type": "uint256"
        }
      ],
      "stateMutability": "view",
      "type": "function"
    },
    {
      "inputs": [
        {
          "internalType": "uint256",
          "name": "policyId",
          "type": "uint256"
        }
      ],
      "name": "fireClaim",
      "outputs": [],
      "stateMutability": "nonpayable",
      "type": "function"
    },
    {
      "inputs": [
        {
          "internalType": "address",
          "name": "policyHolder",
          "type": "address"
        }
      ],
      "name": "getClaim",
      "outputs": [
        {
          "internalType": "uint256",
          "name": "",
          "type": "uint256"
        }
      ],
      "stateMutability": "view",
      "type": "function"
    },
    {
      "inputs": [
        {
          "internalType": "uint256",
          "name": "policyId",
          "type": "uint256"
        }
      ],
      "name": "getPolicy",
      "outputs": [
        {
          "components": [
            {
              "internalType": "uint256",
              "name": "startDate",
              "type": "uint256"
            },
            {
              "internalType": "uint256",
              "name": "endDate",
              "type": "uint256"
            },
            {
              "internalType": "string",
              "name": "lat",
              "type": "string"
            },
            {
              "internalType": "string",
              "name": "long",
              "type": "string"
            },
            {
              "internalType": "uint256",
              "name": "precipitation",
              "type": "uint256"
            },
            {
              "internalType": "uint256",
              "name": "insuredAmount",
              "type": "uint256"
            },
            {
              "internalType": "uint256",
              "name": "premiumAmount",
              "type": "uint256"
            }
          ],
          "internalType": "struct RainInsurance.Policy",
          "name": "",
          "type": "tuple"
        }
      ],
      "stateMutability": "view",
      "type": "function"
    },
    {
      "inputs": [],
      "name": "getRiskPoolBalance",
      "outputs": [
        {
          "internalType": "uint256",
          "name": "",
          "type": "uint256"
        }
      ],
      "stateMutability": "view",
      "type": "function"
    },
    {
      "inputs": [
        {
          "internalType": "uint256",
          "name": "",
          "type": "uint256"
        }
      ],
      "name": "policies",
      "outputs": [
        {
          "internalType": "uint256",
          "name": "startDate",
          "type": "uint256"
        },
        {
          "internalType": "uint256",
          "name": "endDate",
          "type": "uint256"
        },
        {
          "internalType": "string",
          "name": "lat",
          "type": "string"
        },
        {
          "internalType": "string",
          "name": "long",
          "type": "string"
        },
        {
          "internalType": "uint256",
          "name": "precipitation",
          "type": "uint256"
        },
        {
          "internalType": "uint256",
          "name": "insuredAmount",
          "type": "uint256"
        },
        {
          "internalType": "uint256",
          "name": "premiumAmount",
          "type": "uint256"
        }
      ],
      "stateMutability": "view",
      "type": "function"
    },
    {
      "inputs": [
        {
          "internalType": "uint256",
          "name": "",
          "type": "uint256"
        }
      ],
      "name": "policyHolders",
      "outputs": [
        {
          "internalType": "address",
          "name": "",
          "type": "address"
        }
      ],
      "stateMutability": "view",
      "type": "function"
    },
    {
      "inputs": [],
      "name": "usdcToken",
      "outputs": [
        {
          "internalType": "contract IERC20",
          "name": "",
          "type": "address"
        }
      ],
      "stateMutability": "view",
      "type": "function"
    }
  ],
  "bytecode": "0x608060405234801561001057600080fd5b506040516112d63803806112d683398101604081905261002f9161005d565b600080546001600160a01b039092166001600160a01b0319928316179055600580549091163317905561008d565b60006020828403121561006f57600080fd5b81516001600160a01b038116811461008657600080fd5b9392505050565b61123a8061009c6000396000f3fe6080604052600436106100915760003560e01c8063be62dcf111610059578063be62dcf114610179578063c6788bdd146101af578063d3e89483146101dc578063d8b0915d1461020f578063e338415c1461022f57600080fd5b806311eac855146100965780632b07fce3146100d35780634892cdab146101005780634a1c6f5a146101225780634cd3723a14610135575b600080fd5b3480156100a257600080fd5b506000546100b6906001600160a01b031681565b6040516001600160a01b0390911681526020015b60405180910390f35b3480156100df57600080fd5b506100f36100ee366004610d3a565b610244565b6040516100ca9190610d99565b34801561010c57600080fd5b5061012061011b366004610d3a565b6103ff565b005b610120610130366004610ede565b6104e2565b34801561014157600080fd5b5061016b610150366004610fa4565b6001600160a01b031660009081526004602052604090205490565b6040519081526020016100ca565b34801561018557600080fd5b506100b6610194366004610d3a565b6002602052600090815260409020546001600160a01b031681565b3480156101bb57600080fd5b5061016b6101ca366004610fa4565b60046020526000908152604090205481565b3480156101e857600080fd5b506101fc6101f7366004610d3a565b610772565b6040516100ca9796959493929190610fd4565b34801561021b57600080fd5b5061012061022a366004610d3a565b6108bd565b34801561023b57600080fd5b5061016b610c72565b6102846040518060e00160405280600081526020016000815260200160608152602001606081526020016000815260200160008152602001600081525090565b600360008381526020019081526020016000206040518060e001604052908160008201548152602001600182015481526020016002820180546102c690611025565b80601f01602080910402602001604051908101604052809291908181526020018280546102f290611025565b801561033f5780601f106103145761010080835404028352916020019161033f565b820191906000526020600020905b81548152906001019060200180831161032257829003601f168201915b5050505050815260200160038201805461035890611025565b80601f016020809104026020016040519081016040528092919081815260200182805461038490611025565b80156103d15780601f106103a6576101008083540402835291602001916103d1565b820191906000526020600020905b8154815290600101906020018083116103b457829003601f168201915b5050505050815260200160048201548152602001600582015481526020016006820154815250509050919050565b6000818152600360205260409020600501546104575760405162461bcd60e51b81526020600482015260126024820152714d7573742068617665206120706f6c69637960701b60448201526064015b60405180910390fd5b6000818152600360209081526040808320600501543384526004909252822080549192909161048790849061105f565b909155505060008181526003602090815260409182902060050154825184815233928101929092528183015290517f7c61b972a4b7793ab7c7a85d214e2769579c27752c5da069b2817e21a0efe80b9181900360600190a150565b60008160c00151116105445760405162461bcd60e51b815260206004820152602560248201527f5072656d69756d20616d6f756e74206d75737420626520677265617465722074604482015264068616e20360dc1b606482015260840161044e565b60008160a00151116105a65760405162461bcd60e51b815260206004820152602560248201527f496e737572656420616d6f756e74206d75737420626520677265617465722074604482015264068616e20360dc1b606482015260840161044e565b6000805460c08301516040516323b872dd60e01b815233600482015230602482015260448101919091526001600160a01b03909116906323b872dd906064016020604051808303816000875af1158015610604573d6000803e3d6000fd5b505050506040513d601f19601f820116820180604052508101906106289190611086565b9050806106775760405162461bcd60e51b815260206004820152601960248201527f5072656d69756d20636f6c6c656374696f6e206661696c656400000000000000604482015260640161044e565b6001806000828254610689919061105f565b909155505060018054600090815260026020818152604080842080546001600160a01b03191633179055845484526003825292839020865181559086015193810193909355908401518492918201906106e290826110f7565b50606082015160038201906106f790826110f7565b50608082810151600483015560a080840151600584015560c09384015160069093019290925560015492850151918501516040805194855233602086015284019290925260608301919091527ff407f724dd5d2b7754fcbc405960f07c8da0a85e7f71948913fb2997e77bfc86910160405180910390a15050565b6003602052600090815260409020805460018201546002830180549293919261079a90611025565b80601f01602080910402602001604051908101604052809291908181526020018280546107c690611025565b80156108135780601f106107e857610100808354040283529160200191610813565b820191906000526020600020905b8154815290600101906020018083116107f657829003601f168201915b50505050509080600301805461082890611025565b80601f016020809104026020016040519081016040528092919081815260200182805461085490611025565b80156108a15780601f10610876576101008083540402835291602001916108a1565b820191906000526020600020905b81548152906001019060200180831161088457829003601f168201915b5050505050908060040154908060050154908060060154905087565b6000818152600260205260409020546005546001600160a01b03918216911633146109cd5760006040518060400160405280601c81526020017f4f6e6c79206f776e65722063616e206170726f766520636c61696d73000000008152509050816001600160a01b0316837f9b463eb954c3711111fffe9293e9b595f0f76c81255f723861cfe950e854a4df60046000866001600160a01b03166001600160a01b03168152602001908152602001600020548460405161097d9291906111b7565b60405180910390a360405162461bcd60e51b815260206004820152601c60248201527f4f6e6c79206f776e65722063616e206170726f766520636c61696d7300000000604482015260640161044e565b6001600160a01b0381166000908152600460205260408120549003610aa95760006040518060400160405280601f81526020017f506f6c69637920686f6c646572206d7573742068617665206120636c61696d008152509050816001600160a01b0316837f9b463eb954c3711111fffe9293e9b595f0f76c81255f723861cfe950e854a4df60046000866001600160a01b03166001600160a01b031681526020019081526020016000205484604051610a879291906111b7565b60405180910390a38060405162461bcd60e51b815260040161044e91906111d8565b600080546001600160a01b0383811680845260046020819052604080862054905163a9059cbb60e01b815291820192909252602481019190915291169063a9059cbb906044016020604051808303816000875af1158015610b0e573d6000803e3d6000fd5b505050506040513d601f19601f82011682018060405250810190610b329190611086565b905080610b785760405162461bcd60e51b815260206004820152601460248201527310db185a5b481c185e5b595b9d0819985a5b195960621b604482015260640161044e565b6001600160a01b0382166000908152600460209081526040808320839055858352600390915281208181556001810182905590610bb86002830182610ce4565b610bc6600383016000610ce4565b506000600482810182905560058301829055600690920181905584815260026020908152604080832080546001600160a01b03191690556001600160a01b038616808452939091529081902054905185917f9b463eb954c3711111fffe9293e9b595f0f76c81255f723861cfe950e854a4df91610c6591815260406020820181905260089082015267185c1c1c9bdd995960c21b606082015260800190565b60405180910390a3505050565b600080546040516370a0823160e01b81523060048201526001600160a01b03909116906370a0823190602401602060405180830381865afa158015610cbb573d6000803e3d6000fd5b505050506040513d601f19601f82011682018060405250810190610cdf91906111eb565b905090565b508054610cf090611025565b6000825580601f10610d00575050565b601f016020900490600052602060002090810190610d1e9190610d21565b50565b5b80821115610d365760008155600101610d22565b5090565b600060208284031215610d4c57600080fd5b5035919050565b6000815180845260005b81811015610d7957602081850181015186830182015201610d5d565b506000602082860101526020601f19601f83011685010191505092915050565b6020815281516020820152602082015160408201526000604083015160e06060840152610dca610100840182610d53565b90506060840151601f19848303016080850152610de78282610d53565b915050608084015160a084015260a084015160c084015260c084015160e08401528091505092915050565b634e487b7160e01b600052604160045260246000fd5b60405160e0810167ffffffffffffffff81118282101715610e4b57610e4b610e12565b60405290565b600082601f830112610e6257600080fd5b813567ffffffffffffffff80821115610e7d57610e7d610e12565b604051601f8301601f19908116603f01168101908282118183101715610ea557610ea5610e12565b81604052838152866020858801011115610ebe57600080fd5b836020870160208301376000602085830101528094505050505092915050565b600060208284031215610ef057600080fd5b813567ffffffffffffffff80821115610f0857600080fd5b9083019060e08286031215610f1c57600080fd5b610f24610e28565b8235815260208301356020820152604083013582811115610f4457600080fd5b610f5087828601610e51565b604083015250606083013582811115610f6857600080fd5b610f7487828601610e51565b6060830152506080830135608082015260a083013560a082015260c083013560c082015280935050505092915050565b600060208284031215610fb657600080fd5b81356001600160a01b0381168114610fcd57600080fd5b9392505050565b87815286602082015260e060408201526000610ff360e0830188610d53565b82810360608401526110058188610d53565b6080840196909652505060a081019290925260c090910152949350505050565b600181811c9082168061103957607f821691505b60208210810361105957634e487b7160e01b600052602260045260246000fd5b50919050565b8082018082111561108057634e487b7160e01b600052601160045260246000fd5b92915050565b60006020828403121561109857600080fd5b81518015158114610fcd57600080fd5b601f8211156110f257600081815260208120601f850160051c810160208610156110cf5750805b601f850160051c820191505b818110156110ee578281556001016110db565b5050505b505050565b815167ffffffffffffffff81111561111157611111610e12565b6111258161111f8454611025565b846110a8565b602080601f83116001811461115a57600084156111425750858301515b600019600386901b1c1916600185901b1785556110ee565b600085815260208120601f198616915b828110156111895788860151825594840194600190910190840161116a565b50858210156111a75787850151600019600388901b60f8161c191681555b5050505050600190811b01905550565b8281526040602082015260006111d06040830184610d53565b949350505050565b602081526000610fcd6020830184610d53565b6000602082840312156111fd57600080fd5b505191905056fea264697066735822122009472a780c488b4e3599a18049a4ddff62f2bb2896435b0c7aff56eaa6bc5e4d64736f6c63430008120033",
  "linkReferences": {},
  "deployedLinkReferences": {}
}